:020000040800F2
:10000000C00C00209D010008A1010008A301000808
:10001000A5010008A7010008A901000800000000D0
:10002000000000000000000000000000AB0100081C
:10003000AD01000800000000AF010008B101000898
:10004000B3010008B3010008B3010008B3010008C0
:10005000B3010008B3010008B3010008B3010008B0
:10006000B3010008B3010008B3010008B3010008A0
:10007000B3010008B3010008B3010008B301000890
:10008000B3010008B3010008B3010008B301000880
:10009000B3010008B3010008B3010008B301000870
:1000A000B301000883160008B3010008B30100087B
:1000B000B3010008B3010008B3010008B301000850
:1000C000B3010008B3010008B3010008B301000840
:1000D000B3010008B301000843140008B30100088D
:1000E000B3010008B3010008B301000800F002F8F2
:1000F00000F03FF80AA090E8000C82448344AAF183
:100100000107DA4501D100F034F8AFF2090EBAE880
:100110000F0013F0010F18BFFB1A43F0010318473B
:10012000588D0000788D0000103A24BF78C878C13F
:10013000FAD8520724BF30C830C144BF04680C60ED
:10014000704700000023002400250026103A28BF35
:1001500078C1FBD8520728BF30C148BF0B60704739
:10016000642905F0B583002070471FB51FBD10B589
:1001700010BD05F07DFD1146FFF7F7FF00F02AF8EE
:1001800005F09BFD03B4FFF7F2FF03BC00F03AFA61
:1001900030BF72B662B680F30888704708480047DF
:1001A000FEE7FEE7FEE7FEE7FEE7FEE7FEE7FEE727
:1001B000FEE7FEE703480449044A054B7047000088
:1001C000ED000008C0060020C00C0020C008002080
:1001D000C0080020092000F0BCF9482000F05CF8BD
:1001E000022000F0A1F9012000F09EF900F0ACFA25
:1001F00000F0E0FA00F0D1FC4FF4E131242001F0EE
:1002000095F8902140F2CF7000F092FD01F068FB6C
:1002100000F006FE04F067FB04F079FB05F05CFAE1
:100220002AE016480078012801D104F0D1FB1448D7
:100230000078012820D11149087004F0ACFD114963
:10024000086004F0F7FD1048006806F0C7FF044698
:100250000E48006806F0C2FF05460D48006806F02B
:10026000BDFF06460B48007806F0D0FF0746234640
:100270002A46314605F0F9F9D3E7000000000020D6
:1002800002000020040000201400002010000020C4
:100290000C000020990000204FF0E021096921F0B6
:1002A00004014FF0E0221161C21700EB5272C2F359
:1002B000C702234B1A701946097801EB4102C2EBC1
:1002C000C1114FF6FF7202EAC1011E4A1180704748
:1002D00001461B4A12784A434FF0E0235A6100223C
:1002E0009A6101221A6100BF4FF0E022106900F00C
:1002F00001021AB100F48032002AF5D000224FF03A
:10030000E0231A619A61704701460E4A12884A43F7
:100310004FF0E0235A6100229A6101221A6100BF66
:100320004FF0E022106900F001021AB100F48032AF
:10033000002AF5D000224FF0E0231A619A6170473D
:10034000180000201A000020A34A0A400243A34BD1
:100350001A6070470146072323EA010212029F4BED
:100360001B1D18684FF6FF0318409D4B18431043A0
:100370009A4B1B1D186070472DE9F04107468846CF
:1003800014461D462846FFF7E5FFC5F1040007FAAD
:1003900000F60F20284100EA0800064306F00F0689
:1003A000E21704EBD2625211920002F1E022D2F87D
:1003B00000212146E31704EBD3635B11A4EB431C3C
:1003C000012303FA0CF31A432046E31704EBD3632B
:1003D0005B119B0003F1E023C3F800218148005D1D
:1003E00040EA06107F490855BDE8F08170B5044623
:1003F0000B46CE1701EB9676C6F38700CE1701EBBE
:100400009676B610A1EB8606B606350E764B9B693E
:1004100043F00103744EB3614FEAB63353F8203012
:100420000F26AE40B343714E46F82030334653F8A2
:10043000203004FA05F61E436C4B43F820606C4BE9
:100440001B6801268E403343694E336002F001037E
:1004500043B1674B0C331B6801268E403343644E17
:100460000C36336002F0020343B1614B08331E685F
:1004700001238B401E435E4B08331E6070BD00B5E8
:10048000002059490861C860142048610020886133
:10049000C8610846006840F00100086008464068EE
:1004A000544908405049486008460068524908408D
:1004B0004D4908600846006820F48020086008461E
:1004C000406820F4FE0048600020886000214FF062
:1004D0000060FFF739FF00BD10B5404808300068E4
:1004E00040F004003D49083108603F48C06940F0D1
:1004F00080503D49C8614148406840F480703F49A0
:1005000048600846006840F004000860084600683B
:1005100040F002000860FFF73BFE10BD3048001DB0
:100520002E49091D08607047014649062E4A926906
:1005300042F001022C4B9A612C4A083A526822F090
:10054000E0622A4B083B5A601A4652680A435A60D6
:10055000704730B504460025FFF791FF2248006838
:1005600040F480302049086000BF1F480068400CFC
:100570000028FAD04FF480601B494860A01EC4B226
:100580000846406840EA844048600846406840F4B5
:10059000803048601A48006840F03200184908600E
:1005A0001148006840F080700F49086000BF0E4895
:1005B0000068400E0028FAD00B48406840F0020066
:1005C0000949486005E008484068C0F3870505F020
:1005D0000305022DF7D130BD80FFFF1F08ED00E0BD
:1005E0000000FA0500E400E00010024008000140AD
:1005F000000401400000FFF8FFFFF6FE007000401D
:1006000000200240014600BF7047494A1278012A83
:100610000BD100BF474A128802F04002002AF9D0ED
:10062000C2B2444B1B1D1A800AE000BF424A128826
:1006300002F04002002AF9D0C2B23F4B1B1D1A80C3
:1006400070473D49091D088000BF3B49098801F0FA
:1006500040010029F9D070472DE9F05F05460E46AC
:10066000300106F0D3FD8146344905FB01F006F068
:10067000CDFD8246494606F07FFC0746384606F027
:100680008DFD84B2204606F0C1FD8346394606F052
:1006900002FF82464FF0834106F000FE814606F0DD
:1006A0007DFD80464FF6FF7000EA041404EB08005D
:1006B00084B22348806940F00400214988610846DB
:1006C000806940F4804088611E48006820F47F60A3
:1006D0001C4908600846006840F40B600860184830
:1006E000C06840F480401649C8600846C06820F4DD
:1006F0008040C860104808300480001D008842F225
:100700000C0108430C490C3108800846008840F46D
:10071000807008800846008840F02000088001238F
:10072000252219461846FFF727FEBDE8F09F000076
:1007300001000020004400400038014040420F000A
:1007400000100240040801401548806940F0040090
:10075000134988611348006820F00F0011490860B0
:100760000846006840F0030008600E480830006842
:1007700040F480700B490831086070470A490968E5
:10078000491C094A1160814208D108490968C943D6
:10079000074AC2F8A0110021034A11607047000007
:1007A000001002400408014020000020A001214266
:1007B000000021423748806940F0040035498861D3
:1007C0003548006820F070403349086008460068EA
:1007D00040F00040086030480830006840F40040B5
:1007E0002D4908310860704701462C48006828B937
:1007F0002B48007810B90120294A10702948007848
:10080000B0B927480078012807D127480078401C54
:10081000254A10700120234A1070234800780228CE
:1008200006D10020204A1070204A10800220704714
:100830001A480068012804D10020194A1070194A8A
:1008400010701948007801280ED118480088401C03
:1008500080B2164A1080884206DD0020124A1070CD
:10086000124A10800120E2E70020E0E710480078FB
:1008700038B10A48006820B900200D4908700120ED
:10088000704706480068012801D109490870002016
:10089000F6E7000000100240040801403C0121423C
:1008A0002400002025000020260000202800002031
:1008B0002A00002010B50A461AB10123FE4C23601D
:1008C00002E00023FC4C2360002114E00023FB4CD9
:1008D000236000F080031BB10123241D236003E08B
:1008E0000023F64C241D23600123F44C23604306AF
:1008F000180E4B1CD9B20829E8DB0123EE4C23600B
:1009000010BD30B500241CE004F1B001C8B20021D4
:10091000FFF7D0FF00210846FFF7CCFF0021102091
:10092000FFF7C8FF002508E0E54901EBC501085DB8
:100930000121FFF7BFFF681CC5B2802DF4DB601CEE
:10094000C4B2082CE0DB30BD00B500218D20FFF7DC
:10095000B1FF00211420FFF7ADFF0021AF20FFF70A
:10096000A9FF00BD00B500218D20FFF7A3FF0021E6
:100970001020FFF79FFF0021AE20FFF79BFF00BD77
:1009800030B500240CE0002506E00020CC4901EB46
:10099000C5010855681CC5B2802DF6DB601CC4B2C9
:1009A000082CF0DBFFF7ADFF30BDF0B51446002694
:1009B0007F2801DC3F2900DDF0BD0B46CF1701EB9E
:1009C0005777FF10C7F10707FAB2CF1701EB577738
:1009D000FF10A1EBC707FDB2C5F107070123BB401C
:1009E000DEB24CB1B64B03EBC0039B5C3343B44F58
:1009F00007EBC007BB5408E0B14B03EBC0039B5CA3
:100A0000B343AF4F07EBC007BB5400BFD4E72DE99A
:100A1000F04F80460C4615461E46A346A5F1200021
:100A2000C5B200273EE00C2E07D105EB4500A549D5
:100A300001EB800010F8079004E0A34800EB0510DC
:100A400010F807904FF0000A26E009F0800028B166
:100A500021464046099AFFF7A8FF09E0099808B91E
:100A6000012000E00020024621464046FFF79DFF9E
:100A70004FEA49604FEA1069601CC4B2A4EB0B0056
:100A8000B04205D15C4608F1010000F0FF0806E025
:100A90000AF1010000F0FF0ABAF1080FD5DB00BF30
:100AA000781CC7B2B742BEDBBDE8F08F10B5024676
:100AB000012000E050430B00A1F10104E1B2F9D1A3
:100AC00010BD2DE9FF4F81B0074691461E460E9D91
:100AD0004FF0000A002439E0301B401EC1B20A204A
:100AE000FFF7E4FFB9FBF0F00A21B0FBF1F201FBE4
:100AF0001208BAF1000F16D1701EA04213DDB8F132
:100B0000000F0ED10120AB4605EBDB71491001FB54
:100B100004710090C8B22B4620220299FFF777FF9C
:100B200012E04FF0010A0120AB4605EBDB714910E2
:100B300001FB04710090C8B208F13001CAB22B4623
:100B40000299FFF764FF00BF601CC4B2B442C3DB6C
:100B500005B0BDE8F08F78B505460E46144618E09E
:100B60007A2D03DD002506F11000C6B23A2E04DD11
:100B7000002005460646FFF703FF0120009022787B
:100B80000C2331462846FFF742FF05F10800C5B2A5
:100B9000641C20780028E3D178BD10B54B488069EB
:100BA00040F00800494988614948006820F47F0006
:100BB000474908600846006840F408100860434848
:100BC000806940F01000414988610846806940F022
:100BD000010088613F48406820F07F403D494860FF
:100BE0000846406840F0085048603B48006840F4C0
:100BF0008070394908603548006A20F001003349A7
:100C000008623648008820F00100344908803248E4
:100C1000006820F480703049086000202649091DD2
:100C200008606420FFF770FB01202D49C1F8BC016A
:100C30000021AE20FFF73EFE0021D520FFF73AFE4F
:100C400000215020FFF736FE0021A820FFF732FEDA
:100C500000213F20FFF72EFE0021D320FFF72AFEC0
:100C600000210846FFF726FE00214020FFF722FE64
:100C700000218D20FFF71EFE00211420FFF71AFE31
:100C800000212020FFF716FE00210220FFF712FEB0
:100C90000021A120FFF70EFE0021C020FFF70AFE71
:100CA0000021DA20FFF706FE00211220FFF702FEE6
:100CB0000021812016E00000B8012242B0812142CB
:100CC000A800002086760008FA7A0008001002408A
:100CD000040C01400010014000700040306C0040E6
:100CE00000002242FFF7E6FD0021EF20FFF7E2FDC2
:100CF0000021D920FFF7DEFD0021F120FFF7DAFD0A
:100D00000021DB20FFF7D6FD00213020FFF7D2FDC8
:100D10000021A420FFF7CEFD0021A620FFF7CAFD89
:100D20000021AF20FFF7C6FDFFF72AFE10BD00002F
:100D3000384AD26942F00402364BDA611A469269A7
:100D400042F008029A61344A126822F07F42324B24
:100D50001A601A46126842F03B421A601A1D126865
:100D600022F0FF021B1D1A601A46126842F0BB02F5
:100D70001A602A4A1080121F1180284A143A1288D9
:100D800042F4E042254B143B1A801A46128842F086
:100D900070021A801A1D128842F4E0421B1D1A804C
:100DA0001A46128842F070021A801A1F128842F402
:100DB00000621B1F1A801A46128842F008021A802D
:100DC0001A1D128842F400621B1D1A801A461288EE
:100DD00042F008021A801A1D128842F010021B1DF0
:100DE0001A801A46128842F001021A801A461288A6
:100DF00042F480521A801A46128842F480721A8095
:100E0000DA13064B2C3B1A801A46128842F0010274
:100E10001A80704700100240000C01402C0800406E
:100E2000F748806940F00800F5498861F548006896
:100E300020F47F40F34908600846006840F44C50B5
:100E40000860704710B5EF48006820F47040ED4925
:100E500008600846006840F4405008600120EA49F4
:100E60000860EA48D0F82C0108B9002010BD012024
:100E7000E549091F0860FFF72BFA0020E349C1F894
:100E8000AC01E1488038006808B10020EEE701209D
:100E9000FFF71EFA0020DC49091F08600120E5E782
:100EA00010B5D848006820F47040D649086008465C
:100EB000006840F4405008600020D349091F0860D2
:100EC000D249C1F8AC010120FFF702FA0120CE4956
:100ED000091F0860CD49C1F8AC01FFF7F9F910BD51
:100EE00010B50024C748006820F47040C549086068
:100EF0000846006840F4004008600120C2490860CC
:100F0000FFF7E6F90120C149C1F8A801FFF7E0F9B0
:100F10000AE0601CC4B2322C03DDFFF7C1FF0020E1
:100F200010BD0120FFF7D4F9B748803800680028C9
:100F3000EFD1B549091F08600120F1E710B5002085
:100F4000B149091F0860AF48006820F47040AD49FE
:100F500008600846006840F4405008600020AB4933
:100F6000C1F8AC010120FFF7B3F90120A649091F20
:100F70000860FFF7ADF90020A449C1F8A80110BD31
:100F800010B50020A049091F08609E48006820F4A1
:100F900070409C4908600846006840F44050086072
:100FA00001209A49C1F8AC01FFF792F90120964956
:100FB000091F0860FFF78CF900209449C1F8A801C7
:100FC00010BD70B504468F48006820F470408D490C
:100FD00008600846006840F44050086000208A49D4
:100FE000091F0860002516E0E009874908606006CF
:100FF000040E0120FFF76CF901208449C1F8A80113
:10100000FFF766F900208049091F08600120FFF7FB
:101010005FF9681CC5B2082DE6DB70BD2DE9F04113
:1010200005460E4617469846FFF70CFF10B90120FB
:10103000BDE8F0816906080EFFF7C3FFFFF750FF18
:1010400018B9FFF72DFF0120F2E73046FFF7B9FF8F
:10105000FFF746FF00240BE018F80400FFF7B1FF8C
:10106000FFF73EFF18B9FFF71BFF0020E0E7641C05
:10107000BC42F1DBFFF714FF0020D9E770B505464D
:1010800000246048006820F470405E49086008460B
:10109000006840F400400860002617E000205A492C
:1010A000091F08600220FFF713F901205749C1F812
:1010B000A8016006040E54488038006808B1601C1E
:1010C000C4B20220FFF704F9701CC6B2082EE5DB9B
:1010D00015B1FFF733FF01E0FFF752FF204670BD67
:1010E0002DE9F04106460F4614461D46FFF7AAFEBD
:1010F00010B90120BDE8F0817106080EFFF761FF0D
:10110000FFF7EEFE18B9FFF7CBFE0120F2E73846F5
:10111000FFF757FFFFF7E4FEFFF794FE012101EB15
:101120004601C8B2FFF74DFFFFF7DAFE0DE0012CD4
:1011300004D10020FFF7A2FF287003E00120FFF791
:101140009DFF28706D1C601EC4B2002CEFD1FFF70C
:10115000A7FE0020CEE770B505460E460024FFF737
:1011600071FE2846FFF72DFF641CFFF7B9FE3046DD
:10117000FFF727FF641CFFF7B3FEFFF763FE691C50
:10118000C8B2FFF71EFF641CFFF7AAFE0020FFF79E
:1011900075FF0446FFF784FE204670BD2DE9F0413F
:1011A0000746884615461E460024FFF74BFE384684
:1011B000FFF707FFFFF794FE4046FFF702FFFFF738
:1011C0008FFEFFF73FFE791CC8B2FFF7FAFEFFF76C
:1011D00087FE00BF0DE0681EA04204D00120FFF78B
:1011E0004DFF305503E00020FFF748FF3055601CED
:1011F000C4B2AC42EFDBFFF753FE2046BDE8F081FE
:1012000000100240040C0140AC81214200802142C8
:101210002DE9F04180460D4616461F460024FFF793
:1012200011FE4046FFF7CDFEFFF75AFE2846FFF7B6
:10123000C8FEFFF755FE00BF06E0385DFFF7C1FEB0
:10124000FFF74EFE601CC4B2B442F6DBFFF728FE87
:101250000120BDE8F08170B505460E4614463146C2
:101260002846FFF778FF2070012070BD37B504468F
:101270000D4602AB012229462046FFF7C9FF3EBDBD
:101280002DE9F8430746884614461D46089E6A46DF
:1012900041463846FFF7DFFF28B3601CFF2101FA03
:1012A00000F0C4F108012944491EFF220A411043FD
:1012B00000F0FF09C5F1080006FA00F0C6B2C4F15B
:1012C000070006419DF8000000EA090000909DF823
:1012D0000000304300909DF8002041463846FFF75B
:1012E000C5FFBDE8F8830020FBE7F8B506460F46CA
:1012F00014461D466A4639463046FFF7ACFF2DB10D
:101300000120A0409DF80010084305E00120A04006
:101310009DF8001021EA0000C0B200909DF8002066
:1013200039463046FFF7A2FFF8BD00002DE9F05F17
:1013300005460E46300105F069FF8146814905FBEF
:1013400001F005F063FF8246494605F015FE0746A9
:10135000384605F023FF84B2204605F057FF834648
:10136000394606F098F882464FF0834105F096FF23
:10137000814605F013FF80464FF6FF7000EA041423
:1013800004EB080084B27048806940F004006E49A4
:1013900088610846C06940F40030C8616B48006845
:1013A00020F47F40694908600846006840F40B401B
:1013B000086066480C30006840F0040063490C3156
:1013C00008606148006940F400305F4908610846E0
:1013D000006920F4003008615D480480001D008829
:1013E00042F20C0108435A49091D0880084600884A
:1013F00040F4807008800846008840F02000088093
:101400000223262203210846FEF7B6FFBDE8F09F1F
:101410004F49091F088000BF4D490839098801F06C
:1014200040010029F8D0704710B503460C46002251
:1014300000BF985CFFF7ECFF501CC2B2A242F8D18B
:1014400010BD10B542480838008800F0200018B1DF
:101450003F48001F0088C4B20C2C02D101203D4936
:1014600008700A2C02D100203A4908703A480088D6
:1014700038B9AA2C05D101203749088037480470B3
:101480005FE035480088012807D1AF2C05D1022044
:10149000314908803148447053E02F4800880228C1
:1014A00009D1002C07DDF12C05DA03202A49088038
:1014B0002A48847045E02848008803280CD1322C43
:1014C0000ADA0420244908802448C470244804709F
:1014D00000202449087034E01F480088042819D1EE
:1014E0001F480078002815DD1D480078401E1C4963
:1014F00008701C4800781B490978491C194A11706A
:10150000001D16490C5416480078D0B90520124920
:10151000088016E01048008805280FD100200E49E9
:10152000088010480078001D0C490C540D480078C4
:10153000401DC1B2094803F08BFD02E000200649BE
:10154000088010BD40420F0000100240000801401A
:1015500008440040990000202C000020A80400202E
:101560002E0000202F0000200146002901DA484209
:1015700000E00846704730B504460D46E64800785E
:10158000012823D14FF4FA70FFF7EEFFC0F5FA609F
:10159000E24908804FF4FA70FFF7E6FFC0F5FA6001
:1015A000DE49091D08804FF4FA70FFF7DDFFC0F532
:1015B000FA60DA49083108804FF4FA70FFF7D4FF77
:1015C000C0F5FA60D5490C31088022E004F5FA70C4
:1015D000FFF7CAFFC0F5FA60D049088005F5FA7038
:1015E000FFF7C2FFC0F5FA60CC49091D088002F57B
:1015F000FA70FFF7B9FFC0F5FA60C84908310880F2
:1016000003F5FA70FFF7B0FFC0F5FA60C3490C317B
:10161000088030BD4FF4FA70C1490968002902DA28
:101620000021BF4A1160BE490968814201DDBC4901
:101630000860BC490968002902DA0021B94A116032
:10164000B8490968814201DDB6490860B6490968B0
:10165000002902DA0021B44A1160B34909688142C5
:1016600001DDB1490860B1490968002902DA0021A9
:10167000AE4A1160AD490968814201DDAB4908609D
:1016800070472DE9F05FAA48008800F001000028AB
:101690007ED0A748008820F00100A5490880A54811
:1016A000B0F90000C0004FF4C87190FBF1F7384664
:1016B00005F094FD0546A0480168A04805F0EEFD40
:1016C00083469C48B0F90200C0004FF4C87190FBFB
:1016D000F1FA504605F082FD804699480168974826
:1016E00005F0DCFD8246974905F0D5FE814641466E
:1016F00005F0D4FB0746594605F0D8FE06462946B4
:1017000005F0CCFB044605F02DFD854908608948AD
:10171000B0F90000C0004FF4C87190FBF1F73846F3
:1017200005F05CFD054684480168844805F0B6FD77
:1017300083468048B0F90200C0004FF4C87190FBA6
:10174000F1FA504605F04AFD80467D4801687B4825
:1017500005F0A4FD82467B4905F0A0FB8146414689
:1017600005F0A4FE0746594605F098FB06462946B3
:1017700005F09CFE044605F0F5FC6A4908606D48DA
:10178000B0F90000C0004FF4C87190FBF1F700E021
:1017900073E0384605F022FD054667480168674852
:1017A00005F07CFD83466348B0F90200C0004FF4A9
:1017B000C87190FBF1FA504605F010FD8046604874
:1017C00001685E4805F06AFD82465E4905F063FEE9
:1017D0008146414605F062FB0746594605F05EFB2F
:1017E0000646294605F062FE044605F0BBFC4E495C
:1017F00008605048B0F90000C0004FF4C87190FB79
:10180000F1F7384605F0EAFC05464B4801684B48BD
:1018100005F044FD83464748B0F90200C0004FF48C
:10182000C87190FBF1FA504605F0D8FC8046444858
:101830000168424805F032FD8246424905F02EFB20
:101840008146414605F032FE0746594605F02EFE18
:101850000646294605F022FB044605F083FC334981
:101860000860FFF7D7FE314803682F4802682D480B
:1018700001682B480068FFF77EFEBDE8F09F10B5B9
:1018800031492F48006805F0D5FC15D32F492C4865
:10189000006805F0CFFD0FD32D48007801280BD04C
:1018A00029492548006805F0C5FC05D32749224889
:1018B000006805F0BFFD01D2012400E000242046AD
:1018C00010BD10B5FEF7D2FF0446012C07D1204809
:1018D000007808B9012000E000201D49087010BD03
:1018E00010B54FF4FA731A4619461846FFF743FE2F
:1018F0004FF4E160FEF708FD4FF4E160FEF704FDF0
:1019000000231A4619461846FFF735FE4FF47A7041
:10191000FEF7FAFC10BD00009900002034080040DA
:10192000080000200C0000201000002014000020FF
:10193000102C01405C000020700000200000A0403E
:101940006C00002000007A43000020C2000020420A
:101950000200002038B50446FB4890F82400C0B1CE
:1019600014B10220009001E000200090F64A1268B5
:10197000D17BF54A526810786B460122FFF74EFB87
:1019800010B14FF0FF3038BD9DF80010EE484174A3
:1019900023E0ED48807A10B94FF0FF30F3E724B12F
:1019A000E948407C08B10020EDE714B10120009027
:1019B00001E000200090E44A1268D17BE24A5268BC
:1019C00010786B460122FFF729FB10B14FF0FF3072
:1019D000D9E79DF80010DC4841740020D3E738B502
:1019E000002419E0D8480068C07AA04204D0D64844
:1019F0000068407DA04200D10CE0D34949680878D6
:101A00006B4601222146FFF76BFB10B14FF0FF3010
:101A100038BD00BF601CC4B2CB4840680079A0420A
:101A2000E0DC0020F4E770B504460D46C6480068C7
:101A3000C07AA04204D0C4480068407DA04202D1D0
:101A40004FF0FF3070BDC04840680079A04202DC12
:101A50004FF0FF30F6E7BC49496808782B46012271
:101A60002146FFF73DFBEDE738B50446B64890F850
:101A70002300A04201D1002038BD14B130200090D5
:101A800001E000200090B048807C20B19DF800006B
:101A900040F002000090AC4890F8220020B19DF880
:101AA000000040F080000090A74A1268117DA64A0D
:101AB000526810786B460122FFF7B0FA10B14FF070
:101AC000FF30D9E7A04880F823400020D4E738B59C
:101AD000044604F0700010B10120009005E014B13C
:101AE0000020009001E040200090974A1268917C0D
:101AF000954A526810786B460122FFF78FFA20B1A1
:101B0000002191488172481E38BD9DF8000020F0E8
:101B100040018D4801730020009004F0400020B97E
:101B20009DF8000040F00400009004F0200020B96F
:101B30009DF8000040F00200009004F0100020B971
:101B40009DF8000040F00100009004F0080020B96A
:101B50009DF8000040F0380000907B4A1268D17C6C
:101B6000794A526810786B460122FFF757FA20B184
:101B7000002175488172481EC6E724B1082C02D0A6
:101B80000020FFF771FF7048847200210175322038
:101B9000FEF7BAFB0020B7E738B504466A48807CF8
:101BA000A04201D1002038BD002C46D0664A126800
:101BB0001179654A526810786B460122FFF790FA56
:101BC00010B14FF0FF30EEE79DF8000020F020004C
:101BD00000905D4A126811795B4A526810786B4632
:101BE0000122FFF71BFA10B14FF0FF30DBE70320B3
:101BF000FEF78AFB02200090534890F8220020B1A3
:101C00009DF8000040F0800000904F4890F82300BD
:101C100020B19DF8000040F0300000904A4A126860
:101C2000117D494A526810786B460122FFF7F6F998
:101C3000002851D04FF0FF30B5E7434A12681179C0
:101C4000414A526810786B460122FFF749FA10B1F9
:101C50004FF0FF30A7E73C48807A00F0010028B140
:101C60009DF8000040F02000009004E09DF8000086
:101C700020F020000090344A12681179324A5268EC
:101C800010786B460122FFF7C9F910B14FF0FF3011
:101C900089E70320FEF738FB2B4890F8220010B1AB
:101CA0008020009001E000200090274890F8230059
:101CB00020B19DF8000040F030000090224A1268E8
:101CC000117D214A526810786B460122FFF7A6F970
:101CD00010B14FF0FF3066E71B488474002062E7C4
:101CE00008B51948807A10B94FF0FF3008BD0020C0
:101CF0000090154A1268D17B134A526810786B46DF
:101D00000122FFF78BF910B14FF0FF30EEE70E4ADA
:101D1000126851790C4A526810786B460122FFF71D
:101D20007DF910B14FF0FF30E0E7074A12681179F2
:101D3000054A526810786B460122FFF76FF928B107
:101D40004FF0FF30D2E7000030000020F74890F855
:101D50002400002850D00C200090F44A1268117919
:101D6000F24A526810786B460122FFF757F910B11A
:101D70004FF0FF30BAE7C0200090EC48807A00F0C6
:101D8000010020B19DF8000040F020000090E74ADB
:101D900012681179E54A526810786B460122FFF704
:101DA0003DF910B14FF0FF30A0E7E048407C10B1A2
:101DB0000220009001E000200090DC4A1268D17BF4
:101DC000DA4A526810786B460122FFF727F910B102
:101DD0004FF0FF308AE700200090D44A1268517912
:101DE000D24A526810786B460122FFF717F9002893
:101DF00052D04FF0FF3079E704200090CB4A1268B0
:101E00001179CA4A526810786B460122FFF706F929
:101E100010B14FF0FF3069E7C448807C20B9C34857
:101E2000807A00F0010010B94020009001E06020AD
:101E30000090BE4A12681179BC4A526810786B460D
:101E40000122FFF7EBF810B14FF0FF304EE7B74833
:101E5000407C10B10120009001E000200090B34AC6
:101E60001268D17BB14A526810786B460122FFF7A5
:101E7000D5F810B14FF0FF3038E7AC4A126851790D
:101E8000AA4A52681078A94B10330122FFF7C6F80E
:101E900010B14FF0FF3029E7002027E770B5044666
:101EA000002624F00104A14890F8240008B1002085
:101EB00070BD9E48807A10B94FF0FF30F8E79B481C
:101EC000057C807A2040994908740846007CA0422D
:101ED00002D04FF0FF3600E0002614B99348007D91
:101EE00018B10120FFF736FD02E00020FFF732FDB8
:101EF0003CB1FFF7F5FE20B18C4805744FF0FF3080
:101F0000D6E73046D4E738B504468848807A10B919
:101F10004FF0FF3038BDBC2C02DB0120009015E0F3
:101F2000622C02DB0220009010E02A2C02DB03204E
:101F300000900BE0142C02DB0420009006E00A2C39
:101F400002DB0520009001E0062000907748C07A6F
:101F50009DF80010884201D10020DBE7734A126827
:101F60009178724A526810786B460122FFF756F852
:101F700010B14FF0FF30CDE79DF800106B48C172F3
:101F80000020C7E738B50446282C02DD4FF0FF30AB
:101F900038BDDCB90020FFF767FD00208DF8000098
:101FA00007208DF80100614A1268917C5F4A5268EF
:101FB00010786B460222FFF731F810B14FF0FF3076
:101FC000E6E70021594801750020E1E70120FFF70D
:101FD0004BFD20208DF80000012C06D100208DF84B
:101FE00001000520FFF78FFF17E0052C06DC01201C
:101FF0008DF801000520FFF786FF0EE0142C06DCAB
:1020000002208DF801000A20FFF77DFF05E0032084
:102010008DF801001420FFF776FF9DF801000721DD
:1020200001EB8010C0B28DF80100404A1268917C2B
:102030003E4A526810786B460222FEF7EFFF10B15D
:102040004FF0FF30A4E70821384881720021017366
:10205000012101750020FFF721FF002098E738B526
:1020600004463248807A10B94FF0FF3038BD2F480F
:1020700090F8240010B14FF0FF30F7E72B48007DB7
:1020800050B134B1282C04DCE0B2FFF77BFF002014
:10209000ECE70020FFF776FF042C01DA042404E0CB
:1020A000B4F57A7F01DD4FF47A744FF47A7090FBC7
:1020B000F4F0401EC0B200901C4A126851781B4ACE
:1020C000526810786B460122FEF7A8FF10B14FF05E
:1020D000FF30CBE79DF80000401C4FF47A7191FB74
:1020E000F0F081B21148C1810146C9894810FFF75B
:1020F0000AFF0020BAE738B504460C48807A10B9C8
:102100004FF0FF3038BD022C06D0042C07D0082C2D
:1021100008D0102C0FD10BE0002000900EE008201A
:1021200000900BE01020009008E00000300000203C
:102130001820009002E04FF0FF30E3E700BFF948BD
:10214000407A9DF80010B0EBE10F01D10020D9E7F3
:10215000F44A1268D179F34A526810786B4601222A
:10216000FEF75CFF10B14FF0FF30CBE79DF80000A9
:10217000C110EC4841720020C4E738B50446E94874
:10218000807A10B94FF0FF3038BDFA2C09D0B4F581
:10219000FA7F09D0B4F57A7F09D0B4F5FA6F0CD183
:1021A00008E0002000900BE00820009008E01020DC
:1021B000009005E01820009002E04FF0FF30E3E7C8
:1021C00000BFD848007A9DF80010B0EBE10F01D1B4
:1021D0000020D9E7D34A12689179D24A5268107820
:1021E0006B460122FEF71AFF10B14FF0FF30CBE72C
:1021F0009DF80000C010CB4908720020C4E71CB550
:1022000080208DF80000C74A1268917CC54A526848
:1022100010786B460122FEF701FF10B14FF0FF303E
:102220001CBD6420FEF770F800208DF80000BD4A48
:102230001268917CBB4A526810786B460122FEF707
:10224000EDFE10B14FF0FF30EAE7B64A1268917D1B
:10225000B44A526810786B460622FEF741FF10B16F
:102260004FF0FF30DCE79DF80500C007400F9DF8F8
:10227000031001F0010140EA41009DF8011001F056
:10228000010140EA010494B1012C03D10121A548C8
:10229000C17431E0022C03D10021A248C1742BE0AB
:1022A0002146A1A003F0D4FA4FF0FF30B8E79D4AD1
:1022B0001268D1789B4A526810786B460122FEF76B
:1022C0000FFF10B14FF0FF30AAE79DF8000000F0BB
:1022D0000F042CB99E4803F0BBFA4FF0FF309FE784
:1022E000042C06D19BA003F0B3FA01218D48C174E0
:1022F00002E000218B48C174FF218A488172FF20CF
:1023000088490872FF2187484172C1724FF6FF71F8
:10231000C181FF21017481740121017380F82210B1
:10232000002180F82310417501751630016041606D
:102330008160163880F8241080F82510C1844FF48D
:10234000FA60FFF71AFF10B14FF0FF3068E7022084
:10235000FFF7D1FE10B14FF0FF3061E72A20FFF701
:10236000D2FD10B14FF0FF305AE73220FFF777FE71
:1023700010B14FF0FF3053E70020FFF78FFD10B191
:102380004FF0FF304CE70020FFF706FC10B14FF094
:10239000FF3045E70020FFF79AFB002040E7704739
:1023A0007CB504460D465F48807A00F0700010B995
:1023B0004FF0FF307CBD5B4A1268117B594A52686E
:1023C00010786B460622FEF78BFE10B14FF0FF30FF
:1023D000F0E79DF801009DF8001040EA012000B2EE
:1023E00020809DF803009DF8021040EA012000B211
:1023F00060809DF805009DF8041040EA012000B2BD
:10240000A08015B12846FFF7CAFF0020D2E77CB5AF
:1024100004460D464348807A00F0080010B94FF09A
:10242000FF307CBD3F4A1268517B3E4A52681078AB
:102430006B460622FEF754FE10B14FF0FF30F0E776
:102440009DF801009DF8001040EA012000B22080B4
:102450009DF803009DF8021040EA012000B2608060
:102460009DF805009DF8041040EA012000B2A0800C
:1024700015B12846FFF793FF0020D2E72DE9FE4F64
:1024800005460C462748807A18B94FF0FF30BDE862
:10249000FE8F244A1268917B224A5268107802AB60
:1024A0000222FEF71DFE10B14FF0FF30EFE79DF85E
:1024B00009009DF8081040EA012006B214B1204638
:1024C000FFF76DFF17494968C88804F09FFE15495A
:1024D00001904968B1F9080004F080FE8346304657
:1024E00004F07CFE5946009004F0E0FF824601991A
:1024F00004F042FD81461F4904F0D0FC80464FF0B5
:102500008F4104F0CBFE074604F02CFE286000202B
:10251000BDE710B588B004461CB94FF0FF3008B0D5
:1025200010BD29E030000020556E737570706F7219
:1025300074656420736F6674776172652070726F62
:1025400064756374207265762025642E0A0000008D
:10255000288E000848616C662073656E7369746923
:1025600076697479207061727420666F756E642E5E
:102570000D0A000000000C42206830B9606820B9E4
:10258000A06810B9002008B010BDFA494968087861
:1025900006AB03221146FEF7A3FD10B14FF0FF304A
:1025A000F1E79DF81800082101EB201000F00F0062
:1025B000ADF800009DF8190001EB201000F00F00AD
:1025C000ADF802009DF81A0001EB201000F00F009A
:1025D000ADF8040020684100BDF90000403091FBD7
:1025E000F0F000B2ADF8100060684100BDF90200E3
:1025F000403091FBF0F000B2ADF81200A06841004D
:10260000BDF90400403091FBF0F000B2ADF81400C9
:10261000D8494968087806AB06221146FEF760FDE6
:1026200010B14FF0FF30AEE79DF819009DF818107B
:1026300040EA012000B2ADF808009DF81B009DF8AB
:102640001A1040EA012000B2ADF80A009DF81D0002
:102650009DF81C1040EA012000B2ADF80C00BDF856
:102660001000BDF80810084400B2ADF81000BDF825
:102670001200BDF80A10084400B2ADF81200BDF80F
:102680001400BDF80C10084400B2ADF81400BDF8F9
:102690001000000A8DF81800BDF81000C0B28DF8C7
:1026A0001900BDF81200000A8DF81A00BDF81200DA
:1026B000C0B28DF81B00BDF81400000A8DF81C0094
:1026C000BDF81400C0B28DF81D00AA494968087809
:1026D00006AB06221146FEF7A1FC10B14FF0FF3009
:1026E00051E700204FE70146A248007A30B10128A7
:1026F00007D0022809D003280FD10AE0FA20088069
:102700000EE04FF4FA7008800AE04FF47A70088007
:1027100006E04FF4FA60088002E00020088000BF65
:1027200000BF0020704701469248407A30B101282E
:1027300007D0022808D003280CD108E00220087036
:102740000BE00420087008E00820087005E0102065
:10275000087002E04FF0FF30704700BF8548C07C32
:1027600018B108784006000E08700020F4E7014612
:102770008048C07A082817D2DFE800F01704070A5B
:102780000D101318BC20088013E06220088010E0B0
:102790002A2008800DE0142008800AE00A20088022
:1027A00007E00520088004E000BF00BF002008808B
:1027B00000BF00BF0020704701466E4890F824001B
:1027C00010B14FF0FF3070476A48C0890880002080
:1027D000F9E7014600200880401E704701464FF08F
:1027E000FF30704701466348007A30B1012807D0B6
:1027F000022808D003280CD108E05F4808600BE0ED
:102800005E48086008E05E48086005E05D480860D2
:1028100002E04FF0FF30704700BF0020FBE70146A9
:102820005448407A30B1012808D002280AD0032841
:1028300010D10BE04FF4804008800EE041F69C7010
:1028400008800AE04FF48050088006E04FF40060F2
:10285000088002E04FF0FF30704700BF4548C07C61
:1028600010B10888401008800020F5E70146414873
:10287000007C08700020704701463E48807A10B105
:102880000120087001E0002008700020704738B572
:1028900004463848807A10B94FF0FF3038BD354AC9
:1028A0001268117C334A526810786B460222FEF798
:1028B00017FC10B14FF0FF30F0E79DF801009DF8D4
:1028C000001040EA012000B220800020E6E72DE958
:1028D000FE4F0746884692461D46DDF830B000267A
:1028E0000024244890F8240010B1601EBDE8FE8F3B
:1028F000002028701F48807A10B94FF0FF30F5E7AC
:102900001C48007C10B94FF0FF30EFE71948007CFD
:1029100000F0400008B1B01CC6B21648007C00F0C0
:10292000200008B1B01CC6B21248007C00F01000B4
:1029300008B1B01CC6B20F48007C00F0080008B116
:10294000B01DC6B20B4A1268917A0A4A52681078D2
:102950006B460222FEF7C4FB10B14FF0FF30C5E713
:102960009DF801009DF8001040EA0129B1450BDAFD
:102970000020BBE73000002000000343000083423A
:102980003333034233338341FC4840684088B9EB1A
:10299000600F17DDF94A1268517CF84A52681078C6
:1029A0006B460122FEF79CFB10B14FF0FF309DE714
:1029B0009DF8000000F0100020B1FFF791F96FF0D2
:1029C000010093E75046FFF7EAFCEC4A1268D17A1F
:1029D000EA4A526810786B463246FEF781FB10B126
:1029E0004FF0FF3082E799FBF6F0401E8BF80000B5
:1029F00000202870B4422AD0E048007C00F0080093
:102A000028B3601C1DF800001DF8041040EA0120E6
:102A100000B2A8F80000E01C1DF80010A01C1DF872
:102A2000000041EA002000B2A8F80200601D1DF875
:102A30000010201D1DF8000041EA002000B2A8F897
:102A40000400287840F008002870A01D84B2B44229
:102A500013D0CA48007C00F0400070B1601C1DF823
:102A600000001DF8041040EA012000B238802878E8
:102A700040F040002870A01C84B2B44213D0BF487C
:102A8000007C00F0200070B1601C1DF800001DF8F3
:102A9000041040EA012000B27880287840F020003D
:102AA0002870A01C84B2B44213D0B448007C00F05B
:102AB000100070B1601C1DF800001DF8041040EA01
:102AC000012000B2B880287840F010002870A01CC7
:102AD00084B200200AE7F8B504460F461646A74818
:102AE00090F8240010B94FF0FF30F8BDA348807A69
:102AF00010B94FF0FF30F8E7A04A1268917A9F4A68
:102B0000526810786B460222FEF7EAFA10B14FF0D5
:102B1000FF30EAE79DF801009DF8001040EA01252A
:102B2000A54203DA00203070401EDEE7934840687B
:102B30004088B5EB600F17DD904A1268517C8F4AD0
:102B4000526810786B460122FEF7CAFA10B14FF0B6
:102B5000FF30CAE79DF8000000F0100020B1FFF739
:102B6000BFF86FF00100C0E7E2B2844B1B68D97A6E
:102B7000824B5B6818783B46FEF7B2FA10B14FF013
:102B8000FF30B2E795FBF4F0401E30700020ACE758
:102B900001467A4880F82210002070477CB505462F
:102BA00076494968087801AB04220D21FEF798FAAE
:102BB00008B107207CBD9DF80700C0F301109DF807
:102BC000041001F0E00140EAE1008DF800009DF8FA
:102BD0000700C0F381009DF8051001F0E00140EA14
:102BE000E1008DF801009DF8070000F003009DF85A
:102BF000061001F0E00140EAE1008DF80200002437
:102C00001CE01DF8040018B9002045F8240013E06A
:102C10005B4845F8240006E055F82400594904F0C3
:102C20003DFB45F824001DF80400401EC0B20DF81D
:102C300004000028F0D100BF601CC4B2032CE0DB0C
:102C40000020B7E72DE9FE4F06460F4600256846EF
:102C5000FFF7A4FF002442E056F8240057F82410A0
:102C6000A0EB010ABAF1000F01DB514601E0CAF105
:102C70000001084604F0B2FA83464FF08F4104F099
:102C80007BF980465DF82400002104F037FA16D065
:102C90005DF82410404604F06FF982464FF07E51F3
:102CA00004F004FC814629F0004A3748416A504646
:102CB00004F0C0FB12D20120A04005430EE03248D0
:102CC000C169404604F0B6FA05D32F48016A404670
:102CD00004F0B0FB02D20120A0400543641C032C89
:102CE000BADB2846BDE8FE8F2DE9FC5F06460F469D
:102CF000002522494968087801AB03220D21FEF71F
:102D0000EFF910B10720BDE8FC9F9DF8040000F02A
:102D10001F008DF804009DF8050000F01F008DF8DD
:102D200005009DF8060000F01F008DF80600002445
:102D300062E056F8240057F82410A0EB010BBBF119
:102D4000000F01DB594601E0CBF10001084604F019
:102D500045FA4FF08F41009004F00EF9814601A82A
:102D6000005DC0B30849086804F050FA834659462C
:102D7000064804F001F980460FE000003000002012
:102D80007B14AE3E1D5A843F1481000800B04C45B0
:102D9000FE49404604F082FA804601A8005D401ECC
:102DA000C0B201A908550028F2D14146484604F0B6
:102DB000E3F883464FF07E5104F078FB82462AF018
:102DC000004BF3488169584604F034FB13D20120CC
:102DD000A04005430FE0FFE7ED480169484604F0D5
:102DE00029FA05D3EA484169484604F023FB02D298
:102DF0000120A0400543641C032C9ADB284682E78F
:102E00002DE9F04F87B005460C46914601208DF81C
:102E1000100000208DF81100DE4A1268917CDD4A16
:102E20005268107804AB0222FEF7F8F820B14FF098
:102E3000FF3007B0BDE8F08FC820FDF765FA00202D
:102E40008DF81000D34A1268D17BD24A52681078AC
:102E500004AB0122FEF7E2F810B14FF0FF30E8E7D3
:102E6000CC4A12685179CB4A5268107804AB0122DF
:102E7000FEF7D4F810B14FF0FF30DAE7C54A126818
:102E8000917CC44A5268107804AB0122FEF7C6F860
:102E900010B14FF0FF30CCE7BE4A1268D17DBD4A79
:102EA0005268107804AB0122FEF7B8F810B14FF069
:102EB000FF30BEE7B74A12681179B64A52681078F7
:102EC00004AB0122FEF7AAF810B14FF0FF30B0E7D3
:102ED0000C208DF81000AF4A12681179AD4A526883
:102EE000107804AB0122FEF799F810B14FF0FF30D3
:102EF0009FE70F20FDF708FAA648806A407A8DF810
:102F00001000A44A12689178A24A5268107804AB63
:102F10000122FEF783F810B14FF0FF3089E79D489A
:102F2000806A007A8DF810009A4A12685178994A9E
:102F30005268107804AB0122FEF770F810B14FF020
:102F4000FF3076E7B9F1000F07D09248806A807AA7
:102F500040F0E0008DF8100004E08E48806A807A2E
:102F60008DF810008B4A126891798A4A526810785D
:102F700004AB0122FEF752F810B14FF0FF3058E7D2
:102F8000B9F1000F07D08348806AC07A40F0E000B2
:102F90008DF8100003E07E48C07A8DF810007D4A5D
:102FA0001268D1797B4A5268107804AB0122FEF78F
:102FB00035F810B14FF0FF303BE7B9F1000F02D008
:102FC000C820FDF7A1F940208DF81000714A126861
:102FD0001179704A5268107804AB0122FEF71EF88E
:102FE00010B14FF0FF3024E778208DF81000694AC7
:102FF00012685179674A5268107804AB0122FEF7D3
:103000000DF810B14FF0FF3013E761498889FDF7E3
:103010007BF900208DF810005E4A126851795D4AF4
:103020005268107804AB0122FDF7F8FF10B14FF0A1
:10303000FF30FEE6574A1268917A564A5268107875
:1030400004AB0222FEF74CF810B14FF0FF30F0E66F
:103050009DF811009DF8101040EA012B0C209BFBFD
:10306000F0F0C6B20020A86068602860A0606060D0
:103070002060824665E0474A1268D17A454A526824
:10308000107804AB0C22FEF72BF810B14FF0FF3094
:10309000CFE69DF811009DF8101040EA012000B223
:1030A000ADF808009DF813009DF8121040EA0120C9
:1030B00000B2ADF80A009DF815009DF8141040EA22
:1030C000012000B2ADF80C00BDF9081020680844DA
:1030D0002060BDF90A10606808446060BDF90C10FA
:1030E000A0680844A0609DF817009DF8161040EAFB
:1030F000012000B2ADF800009DF819009DF81810ED
:1031000040EA012000B2ADF802009DF81B009DF8D6
:103110001A1040EA012000B2ADF80400BDF9001019
:10312000286808442860BDF902106868084468608F
:10313000BDF90410A8680844A8600AF1010000F075
:10314000FF0AB24597DB1248D0F800C02868C117C3
:10315000090441EA1041070462460023384602F0A0
:1031600052FB32460023CDE9020102F04CFB2860FD
:103170000748D0F800C06868C117090441EA104147
:10318000070462460023384606E0000054E3853F0A
:10319000148100083000002002F035FB3246002385
:1031A000CDE9020102F02FFB6860FE48D0F800C0B4
:1031B000A868C117090441EA1041070462460023C8
:1031C000384602F020FB32460023CDE9020102F02E
:1031D0001AFBA860F348D0F804C02168C81700049F
:1031E00040EA11480F04624600233846414602F087
:1031F0000AFB32460023CDE9020102F004FB206005
:10320000E848D0F804C06068C117090441EA1041D9
:10321000070462460023384602F0F5FA32460023DE
:10322000CDE9020102F0EFFA6060DE48D0F804C098
:10323000A068C117090441EA10410704624600234F
:10324000384602F0E0FA32460023CDE9020102F0EE
:10325000DAFAA060A068002804DDA068A0F580303C
:10326000A06003E0A06800F58030A0600020E0E5E9
:1032700038B50446CC4890F82400A04201D1002083
:1032800038BD24B3C84890F8250010B94FF0FF307E
:10329000F6E70020FEF75EFB0020FEF77DFCC2494A
:1032A000C88CFEF7DCFE00200090BF494968087812
:1032B0006B4601222321FDF7B1FE0121BA4880F8B7
:1032C00024100120FEF746FBFEF70AFD13E0002064
:1032D000FEF740FBB448007C0090B3494968087889
:1032E0006B4601222321FDF799FE0021AE4880F8AC
:1032F0002410FEF7F5FC0020C2E72DE9F04F8DB059
:1033000083460F4602200C90A74890F8240020B175
:103310000020FFF7ADFF012600E0002603A8FFF71D
:10332000E2F905A8FFF7FFF901A8FFF720FA02A8C4
:10333000FFF742FA9C4890F80AA004A8FFF796FA13
:10334000002407E0002239465846FFF759FD00B92E
:1033500002E0641C022CF5DB00BF022C01D1002529
:1033600028E0002407E0012206A909A8FFF748FD8C
:1033700000B902E0641C022CF5DB00BF022C01D175
:10338000002517E006A93846FFF75CFC00F0FF08AF
:1033900009A95846FFF7A8FC00F0FF090025B9F17C
:1033A000000F01D145F00105B8F1000F01D145F042
:1033B000020500BFFF207C490872FF217A48417254
:1033C000C1724FF6FF71C181FF2181720174012129
:1033D0000173BDF80C00FEF7D0FE9DF81400FEF757
:1033E0008AFEBDF80400FEF78EFDBDF80800FEF76A
:1033F00036FE5046FEF76BFB9DF81000FEF74EFDC3
:1034000016B10120FFF734FF28460DB0BDE8F08F5C
:10341000F8B504460D46164616B94FF0FF30F8BD14
:103420006148807A10B94FF0FF30F8E720128DF82C
:103430000000E0B28DF801009DF8010028445A49CF
:1034400049684989884202DD4FF0FF30E7E7564A74
:103450001268117E544A526810786B460222FDF7BA
:10346000DDFD10B14FF0FF30D9E7EAB24E4B1B68DB
:10347000597D4D4B5B6818783346FDF7CFFD10B191
:103480004FF0FF30CBE70020C9E7F8B504460D4602
:10349000164616B94FF0FF30F8BD4348807A10B990
:1034A0004FF0FF30F8E720128DF80000E0B28DF801
:1034B00001009DF8010028443B4949684989884238
:1034C00002DD4FF0FF30E7E7374A1268117E364AD7
:1034D000526810786B460222FDF7A0FD10B14FF044
:1034E000FF30D9E7EAB2304B1B68597D2E4B5B6841
:1034F00018783346FDF7F4FD10B14FF0FF30CBE7FD
:103500000020C9E72DE9F04385B005460E469046F8
:103510009946254890F8250020B14FF0FF3005B0BE
:10352000BDE8F08316B94FF0FF30F8E7002423E040
:10353000281B102801DD102000E0281B87B232195B
:1035400039462046FFF764FF10B14FF0FF30E6E741
:1035500001AA39462046FFF798FF10B14FF0FF301F
:10356000DDE730193A4601A902F0EEF910B16FF02B
:103570000100D4E7E01984B2AC42D9DB4FEA28203D
:103580008DF8000008F0FF008DF80100064A12686F
:10359000917E054A526810786B460222FDF73EFD87
:1035A00038B103E014810008300000204FF0FF30F4
:1035B000B5E701218A4880F82510A0F82690002060
:1035C000ADE70146864890F8240008700020704757
:1035D00002464FF0FF30704701464FF0FF30704712
:1035E000F8B505460F461446002C70D0B5F5FF5FC0
:1035F00001DDFF2605E0202D01DA012601E0C5F3FB
:10360000471607B90127282C02DD4FF0FF30F8BD1F
:103610007348407D28BB724890F8240038B10020E0
:10362000FFF726FE01216E4880F8201003E00021FC
:103630006B4880F820106A481630FFF754F8684845
:103640001830FFF770F866481A30FFF790F86448B2
:103650001C30FFF7B1F86248817A81771F30FFF79D
:1036600005F90020FEF776F90020FEF78BFC00201C
:103670008DF800005A4A12689178594A52681078B9
:103680006B460122FDF7CAFC10B14FF0FF30BEE7D8
:1036900040208DF80000524A1268D17B504A52688F
:1036A00010786B460122FDF7B9FC00B165E08DF89A
:1036B00000608DF801704A4A1268117A484A5268CF
:1036C00010786B460222FDF7A9FC08B155E047E0EF
:1036D0000520FCF719FE4248407A072101EBC000A3
:1036E000C0B28DF800003E4A1268D1793C4A526857
:1036F00010786B460122FDF791FC00B13DE02020DF
:103700008DF80000012C03D100208DF801000EE09F
:10371000052C03DC01208DF8010008E0142C03DCEB
:1037200002208DF8010002E003208DF801009DF8D1
:103730000100072101EB8010C0B28DF80100284A7A
:103740001268917C264A526810786B460222FDF777
:1037500065FC00B111E0012121484175002056E7C8
:103760001F4A1632002103E0505C00B105E0491CFD
:103770000C29F9D34FF0FF3049E7FF2018490872B0
:10378000FF2117484172C1724FF6FF71C181FF21BD
:1037900081720174012101730146887FFEF797F958
:1037A0000F49C88AFEF7E9FC0D49087EFEF7A3FC25
:1037B0000B49488BFEF7A7FB0949888BFEF74FFCA6
:1037C0000749C87FFEF76AFB054890F8200010B152
:1037D0000120FFF74DFD002101484175002016E74B
:1037E0003000002010B5C8234FF48062F74940F63E
:1037F000F630FFF787FE10BD10B586B00446F4A082
:1038000000680390F3A000680290F3A000680190A4
:10381000F2A00068009004F0030003A9085C8DF892
:10382000140003A8C4F3C101405C8DF8150003A87F
:10383000C4F38111405C8DF8160004F0030002A966
:10384000085C8DF8100002A8C4F3C101405C8DF83B
:10385000110002A8C4F38111405C8DF8120005AA82
:10386000032140F22640FFF7D3FD18B14FF0FF309F
:1038700006B010BD04AA032140F22A40FFF7C8FD9C
:1038800010B14FF0FF30F3E70198059000980490D5
:1038900004F0040058B19DF8140040F001008DF8C8
:1038A00014009DF8100040F001008DF8100004F0A5
:1038B000200058B19DF8150040F001008DF815006A
:1038C0009DF8110040F001008DF8110004F48070A3
:1038D00058B19DF8160040F001008DF816009DF8D3
:1038E000120040F001008DF8120005AA03214FF4E8
:1038F0008860FFF78DFD10B14FF0FF30B8E704AAE4
:10390000032140F23140FFF783FD10B14FF0FF304B
:10391000AEE7B34804810020AAE71FB50446B048CB
:10392000007A00F0030054F820000190AC48007ABF
:1039300000F0040010B1019840420190A848007ABC
:10394000C0F3C10054F820000290A548007A00F0AE
:10395000200010B1029840420290A148007AC0F3C2
:10396000811054F8200003909D48008900F4807075
:1039700010B10398404203909A49019880FB0101DD
:10398000800F40EA810001909649029880FB011067
:10399000820042EA917002909249039880FB0110E4
:1039A000820042EA917003900198000E8DF80000A9
:1039B0000198000C8DF801000198000A8DF80200B2
:1039C0000198C0B28DF803006A4604214FF4747068
:1039D000FFF71EFD18B14FF0FF3004B010BD029884
:1039E000000E8DF800000298000C8DF8010002987E
:1039F000000A8DF802000298C0B28DF803006A46F2
:103A000004214FF47570FFF703FD10B14FF0FF3044
:103A1000E3E70398000E8DF800000398000C8DF882
:103A200001000398000A8DF802000398C0B28DF8D7
:103A300003006A4604214FF47670FFF7E9FCCCE7F7
:103A400070B588B0064601A8FEF7E9FEBDF804008F
:103A50000021C90341EA5045C4036148007A00F0DF
:103A6000030056F8200005905D48007A00F004003D
:103A700010B10598404205905948007AC0F3C10042
:103A800056F8200006905648007A00F0200010B149
:103A90000698404206905248007AC0F3811056F8CA
:103AA000200007904E48008900F4807010B10798FC
:103AB000404207900598C117A0FB042301FB043185
:103AC00000FB0510810041EA927005900698C1172D
:103AD000A0FB042301FB043100FB0510810041EA37
:103AE000927006900798C117A0FB042301FB0431D4
:103AF00000FB0510810041EA927007900598000EC6
:103B00008DF808000598000C8DF809000598000A4A
:103B10008DF80A000598C0B28DF80B000698000ECB
:103B20008DF80C000698000C8DF80D000698000A20
:103B30008DF80E000698C0B28DF80F000798000EA1
:103B40008DF810000798000C8DF811000798000AF6
:103B50008DF812000798C0B28DF8130002AA0C214C
:103B60004FF42570FFF754FC08B070BD30B585B038
:103B700004461DA207CA02AB07C3C82C03DD4FF0E1
:103B8000FF3005B030BDC82090FBF4F0401E85B278
:103B9000280A8DF80000E8B28DF801006A4602217B
:103BA00040F21620FFF734FC10B14FF0FF30E8E789
:103BB00002AA0C2140F6C120FFF72AFC10B14FF0F9
:103BC000FF30DEE7064884810020DAE73C81000808
:103BD0004CCD6C000CC92C0036567600264666008B
:103BE0007005002009E3CA02FEF2ABC4AAF1DFDFD0
:103BF000BBAFDFDF0146FC488089088000207047AA
:103C00002DE9FC4706460F4606F0070010B1B7F550
:103C1000C86F03DD4FF0FF30BDE8FC87384603F086
:103C2000F5FA8146F14903F0A7F980466846FEF7A8
:103C30007AFD9DF80000022806D0042816D0082836
:103C400026D0102848D135E04FF08D41404603F092
:103C500025FB814603F0A2FA84B2E549404603F011
:103C60001DFB814603F09AFA85B238E04FF08C4193
:103C7000404603F013FB814603F090FA84B2DD491D
:103C8000404603F00BFB814603F088FA85B226E03C
:103C90004FF08B41404603F001FB814603F07EFA72
:103CA00084B2D549404603F0F9FA814603F076FA2A
:103CB00085B214E04FF08A41404603F0EFFA8146A6
:103CC00003F06CFA84B2CD49404603F0E7FA81462E
:103CD00003F064FA85B202E04FF0FF309CE700BFCA
:103CE00020128DF80400E0B28DF8050028128DF83E
:103CF0000600E8B28DF8070006F00100A0B101AAA5
:103D000002214FF4EA70FFF783FB10B14FF0FF3050
:103D100082E70DF1060202214FF49270FFF778FB63
:103D200010B14FF0FF3077E706F00200A0B101AA12
:103D300002214FF4EC70FFF76BFB10B14FF0FF3036
:103D40006AE70DF1060202214FF49470FFF760FB61
:103D500010B14FF0FF305FE706F00400A0B101AAF8
:103D600002214FF4EE70FFF753FB10B14FF0FF301C
:103D700052E70DF1060202214FF49670FFF748FB5F
:103D800010B14FF0FF3047E7002045E738B5044653
:103D90000020009004F0010020B19DF8000040F0E8
:103DA0003000009004F0020020B19DF8000040F0C7
:103DB0000C00009004F0040020B19DF8000040F0D9
:103DC000030000906A4601214FF4A470FFF720FB26
:103DD00038BD38B50446012C01DA012402E0042C78
:103DE00000DD0424601EC0B200906A46012140F24A
:103DF0004F10FFF70DFB38BD38B50446052094FB86
:103E0000F0F085B228128DF80000E8B28DF80100BC
:103E10006A4602214FF4EF70FFF7FAFA38BD38B561
:103E20000446052094FBF0F085B228128DF80000BE
:103E3000E8B28DF801006A4602214FF4ED70FFF7F9
:103E4000E7FA38BDF8B505460E464FF47A7095FB93
:103E5000F0F000FB06F4200E8DF80000200C8DF829
:103E60000100200A8DF80200E0B28DF803006A46D6
:103E700004214FF4AE70FFF7CBFAF8BD38B5044615
:103E8000052094FBF0F084B220128DF80000E0B21F
:103E90008DF801006A4602214FF4AD70FFF7B8FAC1
:103EA00038BD38B50446052094FBF0F084B22012EA
:103EB0008DF80000E0B28DF801006A4602214FF44F
:103EC000AC70FFF7A5FA38BD38B5044614B94FF009
:103ED000FF3038BD6A4604214FF45870FFF7D5FA19
:103EE00010B14FF0FF30F4E79DF8000000069DF898
:103EF000011040EA01409DF8021040EA01209DF8BF
:103F00000310084320600020E3E738B50446200E84
:103F10008DF80000200C8DF80100200A8DF80200B9
:103F2000E0B28DF803006A4604214FF45870FFF7A1
:103F30006FFA38BD38B5044614B94FF0FF3038BDBC
:103F40006A4604214FF47170FFF79FFA10B14FF0E9
:103F5000FF30F4E79DF8000000069DF8011040EAEC
:103F600001409DF8021040EA01209DF8031008432B
:103F700000EB8000800020600020E0E738B50446B8
:103F80001420B4FBF0F4200E8DF80000200C8DF806
:103F90000100200A8DF80200E0B28DF803006A46A5
:103FA00004214FF47170FFF733FA38BD38B5044679
:103FB00064B120208DF8000028208DF80100302009
:103FC0008DF8020038208DF8030004E0A3220421BC
:103FD000684601F0E5FC6A46042140F69E20FFF7A2
:103FE00017FAFDF77DFE38BD70050020000048433C
:103FF000000040460000C045000040450000C044AD
:1040000038B5044664B1C0208DF80000C2208DF898
:104010000100C4208DF80200C6208DF8030004E0E2
:104020008B220421684601F0BBFC6A46042140F65D
:104030009820FFF7EDF9FDF753FE38BD3EB5044675
:104040006CB1FDA1D1E900208968CDE90020029181
:104050006A4609214FF49760FFF7DAF93EBDF9A2ED
:10406000D2E900109268CDE9010200916A46092167
:104070004FF49760FFF7CCF9F0E73EB50446022015
:104080008DF80000CA208DF80100E3208DF80200B1
:1040900009208DF803006A4604216820FFF7B8F96B
:1040A000A3208DF8000004F0400048B1C0208DF836
:1040B0000100C8208DF80200C2208DF8030006E040
:1040C000A3208DF801008DF802008DF8030004F4A0
:1040D000C07048B1C4208DF80400CC208DF80500D4
:1040E000C6208DF8060006E0A3208DF804008DF8A8
:1040F00005008DF80600A3208DF807008DF8080054
:104100008DF809006A460A2140F6A720FFF780F9DA
:1041100004F0030018B120208DF8000002E0D82040
:104120008DF800006A46012140F6B620FFF770F9CD
:1041300004F0200018B10120FFF780FF02E000200A
:10414000FFF77CFF04F4C07008B304F4807060B122
:10415000B2208DF800008B208DF80100B6208DF87C
:1041600002009B208DF803000BE0B0208DF80000CA
:1041700080208DF80100B4208DF8020090208DF889
:1041800003006A46042140F6A220FFF741F904F03B
:10419000010020B3F8208DF800006A4601214FF499
:1041A0000B60FFF735F9FA210720FFF729FD0720FB
:1041B000FFF7ECFD0120FFF70CFE6420FFF71CFE6B
:1041C0004FF4FA70FFF72BFEC821A148FFF73AFE23
:1041D0002820FFF753FE0A20FFF763FE08E0D820EF
:1041E0008DF800006A4601214FF40B60FFF710F9CB
:1041F00004F0020018B1D9208DF8000002E0D820A8
:104200008DF800006A46012140F23D70FFF700F989
:1042100004F0040018B10120FFF7F2FE02E00020D4
:10422000FFF7EEFE04F0100018B10120FFF7BEFE0C
:1042300002E00020FFF7BAFE44F0080085494881FB
:10424000FDF74EFD00208349887304F0400018B14B
:104250000846807B801D887304F4C07020B17D48BF
:10426000807B801D7B49887304F0140020B179485D
:10427000807B10307749887304F0030020B17548C3
:10428000807B001D7349887300203EBD0146714844
:1042900040890880002070472DE9F0410446E0780D
:1042A00000F0C006E07800F03F05607800F0010003
:1042B00098B1EF102846E91705EB5171C910A5EB2D
:1042C000C101491C01F0FF086248006820B1614843
:1042D000414602683846904700BF607800F0080009
:1042E00030B15C48406818B1B0115A4A51688847EB
:1042F0000020BDE8F08110B586B0044656A207CA7A
:1043000003AB07C357A207CA8DE80700012C09D0E9
:10431000022C0ED103AA0B2140F68220FFF778F879
:1043200006B010BD6A460B2140F68220FFF770F8F8
:10433000F6E74FF0FF30F3E72DE9F04F8DB0074679
:10434000884615469946DDE9166B0024002030802A
:104350004049887B5A4605A9FEF7BDFB18B1601E8F
:104360000DB0BDE8F08F3B48807A00F014000028C3
:1043700061D09DF8140000069DF8151040EA014038
:104380009DF8161040EA01209DF817100843286098
:104390009DF8180000069DF8191040EA01409DF8AC
:1043A0001A1040EA01209DF81B10084368609DF830
:1043B0001C0000069DF81D1040EA01409DF81E10EB
:1043C00040EA01209DF81F100843A8609DF82000D6
:1043D00000069DF8211040EA01409DF8221040EAB5
:1043E00001209DF823100843E86004F11000C4B2D6
:1043F000286800140190686800140290A8680014EE
:104400000390E8680014049001984043029901FB6E
:104410000100039901FB0100049901FB010ABAF1B3
:10442000706F02DBBAF1885F22DDFDF759FC0020D6
:104430003080401E94E721E0B8AAB38DB4980D35C2
:104440005D000000B8AAAAAAB088C3C5C7000000D2
:1044500009E3CA0270050020D8B1B9F38BA391B665
:1044600009B4D900DAB1B9F38BA391B6DAB4DA00A2
:10447000B6F9000040F48070308000BF3448807A84
:1044800000F0400020B305A9601C085C095D40EA0B
:10449000012000B2A8F8000005A9E01C095C05AAEB
:1044A000A01C105C41EA002000B2A8F8020005A997
:1044B000601D095C201D105C41EA002000B2A8F8D4
:1044C0000400A01DC4B2B6F9000040F0080030801E
:1044D0001F48408900F4C07008B305A9601C085C3F
:1044E000095D40EA012000B2388005A9E01C095CA2
:1044F00005AAA01C105C41EA002000B2788005A942
:10450000601D095C201D105C41EA002000B2B880EB
:10451000A01DC4B2B6F9000040F0700030800C4815
:10452000807A00F0030018B105A90819FFF7B4FE5E
:104530004846FDF734FF002012E7014604480160B9
:10454000002070470146024841600020704700008B
:1045500070050020014691F90020002A01DD0020AD
:104560001EE091F90020002A01DA042018E091F9F8
:104570000120002A01DD012012E091F90120002A2A
:1045800001DA05200CE091F90220002A01DD022069
:1045900006E091F90220002A01DA062000E0072057
:1045A000704770B505462846FFF7D4FF0446E81C5F
:1045B000FFF7D0FF44EAC00084B2A81DFFF7CAFF8E
:1045C00044EA801084B2204670BD70B588B002A95C
:1045D00005A8FEF792FE0446072C3FD101A8FEF77E
:1045E00001F9059802F0FAFD0646019902F056FE1F
:1045F000054602F0B7FD0590069802F0EFFD06466D
:10460000019902F04BFE054602F0ACFD06900798BA
:1046100002F0E4FD0646019902F040FE054602F074
:10462000A1FD079005A8FFF778F96846FEF7F7F8AF
:10463000BDF80010029848430290BDF8001003989E
:1046400048430390BDF8001004984843049002A822
:10465000FFF7F6F9FEA001F0FBF800BF08B070BD4F
:104660002DE9F04304460D46DDE9076700210120EE
:1046700041E0DFF800C43CF81080A0F1010CDFF845
:10468000F49329F81C8009F1160C3CF81090A0F165
:10469000010CDFF8E08308F1160828F81C9008F1F7
:1046A000160C3CF81090A0F1010C08F1160828F83F
:1046B0001C9008F1160C3CF81090A0F1010C08F1C8
:1046C000160828F81C9008F1160C3CF81090A0F180
:1046D000010C08F1160828F81C9008F1160C3CF89B
:1046E0001090A0F1010C08F1160828F81C9000F1B8
:1046F000010C0CF0FF000A28BBDBDFF878C3ACF834
:104700001240ACF82850ACF83E20ACF85430ACF86D
:104710006A60ACF880700021002008E0DFF854C324
:104720003CF910C0614400F1010C0CF0FF000A28B4
:10473000F4DB4FF00A0C91FBFCFC0FFA8CFCDFF869
:104740003483A8F814C0002100200AE0DFF824C355
:104750000CF1160C3CF910C0614400F1010C0CF096
:10476000FF000A28F2DB4FF00A0C91FBFCFC0FFA69
:104770008CF8DFF800C3ACF82A80002100200AE0A2
:10478000DFF8F0C20CF12C0C3CF910C0614400F1D0
:10479000010C0CF0FF000A28F2DB4FF00A0C91FB31
:1047A000FCFC0FFA8CF8DFF8CCC2ACF8408000219A
:1047B00000200AE0DFF8BCC20CF1420C3CF910C04A
:1047C000614400F1010C0CF0FF000A28F2DB4FF00D
:1047D0000A0C91FBFCFC0FFA8CF8DFF898C2ACF8DD
:1047E0005680002100200AE0DFF888C20CF1580C46
:1047F0003CF910C0614400F1010C0CF0FF000A28E4
:10480000F2DB4FF00A0C91FBFCFC0FFA8CF8DFF89E
:1048100064C2ACF86C80002100200AE0DFF854C2CA
:104820000CF16E0C3CF910C0614400F1010C0CF06D
:10483000FF000A28F2DB4FF00A0C91FBFCFC0FFA98
:104840008CF8DFF830C2ACF88280BDE8F08338B570
:104850000446032302226B21D0200094FCF710FDB4
:1048600038BD38B50446022304221B21D020009411
:10487000FCF706FD38BD38B50446022304221C218E
:10488000D0200094FCF7FCFC38BD10B5044623464C
:1048900006226B21D020FCF728FD10BD10B5764B09
:1048A00001227521D020FCF779FC7348007810BDF7
:1048B00010B5FFF7F3FF682801D1012010BD0020DB
:1048C000FCE710B50446234605226A21D020FCF7F8
:1048D0000CFD10BD10B50446234601223721D0201F
:1048E000FCF703FD10BD10B50220FFF7B0FF032059
:1048F000FFF7B7FF0020FFF7BEFF0020FFF7C5FF5F
:104900000020FFF7DEFF0020FFF7E4FF10BD38B501
:10491000002000906B46012275216820FCF7E0FB27
:1049200056A000F095FF9DF8000068280ED000BF4B
:104930005B48006800F4E0605A490843001D58498C
:104940000860BFF3408F00BF00BFFEE7FDF757FCD4
:1049500000283CD17820FDF7BAF810B947A000F044
:1049600077FF7820FDF79AFA10B94FA000F070FF9A
:10497000C820FDF774FB10B955A000F069FFFEF7E1
:1049800031FF10B95CA000F063FF6848FFF709FE33
:104990000446FEF731FF10B965A000F059FF40F260
:1049A0007310FFF76AFB10B96BA000F051FFC8202D
:1049B000FFF7DCF810B972A000F04AFFFFF705FE20
:1049C0000120FEF755FC10B976A000F041FF38BD7C
:1049D0002DE9F04F8FB00CA87B490DAB08AACDE9AB
:1049E00000107A497A48FFF7A7FC7748008800F45E
:1049F000807000282AD0089802F0F0FB04464FF09F
:104A00009D4102F0B9FA73490860099802F0E6FB8B
:104A100004464FF09D4102F0AFFA6F4908600A98D2
:104A200002F0DCFB04464FF09D4102F0A5FA6B4911
:104A300008600B9802F0D2FB04464FF09D4102F053
:104A40009BFA6749086063480168CBE0A0E1000079
:104A500073657474696E672062696173207375632E
:104A600063657366756C6C79202E2E2E2E2E2E0D9E
:104A70000A0000008E050020800500206D70755F23
:104A80007365745F73656E736F7220636F6D706CA6
:104A9000657465202E2E2E2E2E2E0D0A000000008D
:104AA0000CED00E00000FA056D70755F636F6E66D7
:104AB00069677572655F6669666F20636F6D706C9C
:104AC000657465202E2E2E2E2E2E0D0A000000005D
:104AD0006D70755F7365745F73616D706C655F7227
:104AE00061746520636F6D706C657465202E2E2E69
:104AF0002E2E2E0D0A000000646D705F6C6F6164D5
:104B00005F6D6F74696F6E5F6472697665725F6600
:104B100069726D7761726520636F6D706C65746525
:104B2000202E2E2E2E2E2E0D0A0000008800002092
:104B3000646D705F7365745F6F7269656E746174C4
:104B4000696F6E20636F6D706C657465202E2E2EFC
:104B50002E2E2E0D0A000000646D705F656E61627E
:104B60006C655F6665617475726520636F6D706CEE
:104B7000657465202E2E2E2E2E2E0D0A00000000AC
:104B8000646D705F7365745F6669666F5F72617490
:104B90006520636F6D706C657465202E2E2E2E2E31
:104BA0002E0D0A006D70755F7365745F646D705FC4
:104BB000737461746520636F6D706C657465202E0D
:104BC0002E2E2E2E2E0D0A006800002062000020DE
:104BD0005C000020780000207C0000208000002085
:104BE000840000204FF0804002F058FB069085487A
:104BF0000168069802F052FB8246834801684FF034
:104C0000404002F04BFB069080480168069802F095
:104C100045FB8346514602F041F9079002F012F934
:104C2000804601F0CDF806464FF06632784B01F031
:104C30002FFE044601F0F2FB7649086071480168D6
:104C40004FF0804002F02AFB03906E480168039801
:104C500002F024FB82466C4801684FF0404002F0AD
:104C60001DFB039068480168039802F017FB834618
:104C7000514602F01BFC81464FF07E5102F00EF9C6
:104C8000044602F0DFF8CDE90401634801684FF003
:104C9000804002F003FB83465B480168584602F0FF
:104CA000FDFA8146574801684FF0804002F0F6FA5D
:104CB000834656480168584602F0F0FA8246494653
:104CC00002F0ECF8044602F0BDF80746DDE90423E3
:104CD00001F0BEFA4FF066324D4BCDE9060101F00E
:104CE000D7FD054601F09AFB4C490860474801682A
:104CF000006802F0D3FA039042480168006802F0AD
:104D0000CDFA029040480168006802F0C7FA834675
:104D100041480168006802F0C1FA5946019002F06A
:104D2000BDF88246029902F0C1FB8146039902F068
:104D3000BDFB044602F086F8CDE904013348016862
:104D40003548006802F0AAFA82462E4801682E48CB
:104D5000006802F0A3FA8346514602F09FF88146AC
:104D60004FF0804102F09AFA044602F06BF80746D1
:104D7000DDE9042301F06CFA4FF06632244BCDE9F3
:104D8000060101F085FD054601F048FB2449086055
:104D90000FB0BDE8F08F2DE9F05F4221D020FCF785
:104DA000DAF905464121D020FCF7D5F905EB0024BE
:104DB000204602F013FA82464FF08E41504602F030
:104DC00039FB05D24FF08F41504602F06FFB82460F
:104DD0001449504602F0D0F8834602F033F880467A
:104DE000114A124B01F04CFB06460022104B01F019
:104DF0004FFD044601F012FB8246504602F0B2F924
:104E0000BDE8F09F800000207C000020840000208E
:104E100066A64C406C000020780000207000002046
:104E2000740000200000AA43A4703D0AD74342400A
:104E30000000244038B5FBF787FD5CA2002108463E
:104E4000FBF789FE0C20012300905A4802780021CC
:104E50001E20FBF736FE57480078012805D156A2E0
:104E600000212D20FBF777FE12E05248007802283F
:104E700005D152A200212D20FBF76DFE08E04D4820
:104E80000078032804D14FA200212D20FBF763FEF8
:104E90004EA20A210020FBF75EFE4E4800680A2160
:104EA00090FBF1F40C200223224600902D20FBF70A
:104EB00008FE484800680A2190FBF1F201FB120449
:104EC0000C200123224600904420FBF7FAFD42A269
:104ED0000A213A20FBF73FFE40A20A215020FBF7AF
:104EE0003AFE3FA228210020FBF735FE00213E4874
:104EF000006802F09FF911D23C493B48006801F07C
:104F0000CDFF054602F04AF904460C200323224651
:104F1000282100904B20FBF7D4FD0CE032480068BC
:104F200002F03CF904460C2003232246282100907D
:104F30004B20FBF7C6FD2EA232210020FBF70BFE13
:104F400000212D48006802F075F911D227492A483E
:104F5000006801F0A3FF054602F020F904460C208A
:104F600003232246322100904B20FBF7AAFD0CE0E0
:104F70002148006802F012F904460C20032322465F
:104F8000322100904B20FBF79CFDFBF7BAFC38BDAB
:104F900098B51548006802F0E5F80746F3B2EAB2A2
:104FA000E1B2009015A000F053FC98BD5741592D77
:104FB0000000000000000020444D50004B616C6D6B
:104FC000616E0000487562750000000057656E64F0
:104FD00075000000040000202E0000006043000067
:104FE00050697463680000006C0000200000B44346
:104FF000526F6C6C00000000700000205A25643A6B
:1050000025643A25643A25644C24000010B5014615
:1050100000220020AA23FE4C23706370F023A370AB
:105020000323E370BA23237100236371234699712C
:1050300000BF05E0F64B1B5C1344DAB2431CD8B248
:105040000728F7DBF24BDA710123F24C237010BD15
:105050002DE9F04104460D460026002700BF04E07C
:10506000E05D3044C6B2781CC7B2681EB842F7DCB7
:10507000601910F8010CB04201D0BDE8F081207831
:10508000AA2802D16078AF2800D0F6E7A0780128DE
:1050900003D1A078022800D100BFA078122823D124
:1050A0006179227941EA022002F098F88046DA49D3
:1050B00001F062FFD9490861E179A27941EA022051
:1050C00002F08CF88046D64901F056FFD34948617A
:1050D000617A227A41EA022002F080F88046D149C2
:1050E00001F04AFFCD498861A078022802D1012051
:1050F000CD4908703046FFF789FF00BFBDE77FB597
:10510000002400250026AA222146641CC0484254DF
:105110002146641C4254F1222146641C4254002260
:105120002146641C42549DF803202146641C4254CD
:105130009DF802202146641C42549DF8012021461E
:10514000641C42549DF800202046611CCCB2B0493A
:105150000A549DF807202046611CCCB2AC490A5481
:105160009DF806202046611CCCB2A9490A549DF83E
:1051700005202046611CCCB2A5490A549DF80420A4
:105180002046611CCCB2A2490A549DF80B2020464F
:10519000611CCCB29E490A549DF80A202046611C2D
:1051A000CCB29B490A549DF809202046611CCCB220
:1051B00097490A549DF808202046611CCCB29449B6
:1051C0000A549DF80F202046611CCCB290490A5425
:1051D0009DF80E202046611CCCB28D490A549DF8E2
:1051E0000D202146601CC4B2894842549DF80C2011
:1051F0002046611CCCB286490A54201FC87000BFEB
:1052000005E08348405D3044C6B2681CC5B2A54283
:10521000F7DB2046611CCCB27D490E5421467C4808
:10522000FCF702F97FBD2DE9F0410024002600259E
:1052300079497E48006802F031F8804601F092FF1B
:10524000074601F0CBFF79490860AA222146641C79
:105250006F4842542146641C425402222146641C79
:10526000425400222146641C42542146641C42548C
:1052700001222146641C425400222146641C4254EF
:1052800002222046611CCCB261490A540022204609
:10529000611CCCB25E490A5403222046611CCCB288
:1052A0005B490A5400222046611CCCB258490A547A
:1052B00004222146601CC4B25548425400222046B4
:1052C000611CCCB252490A5405222046611CCCB262
:1052D0004F490A5400222046611CCCB24C490A5462
:1052E00006222046611CCCB249490A5400222046BD
:1052F000611CCCB246490A542046611CCCB24449D8
:105300000A542046611CCCB241490A542046611C13
:10531000CCB23F490A542146601CC4B23C484254B6
:105320002046611CCCB23A490A54201FC87005E0DF
:105330003748405D3044C6B2681CC5B2A542F7DBB1
:105340002046611CCCB232490E5421463048FCF74D
:105350006BF8BDE8F0812DE9FC4100240025002612
:1053600000200090AA222146641C2948425421466C
:10537000641C425401222146641C425400222146EE
:10538000641C425424492948006801F087FF0746FD
:1053900001F0E8FE00B201909DF805202146641C52
:1053A0001B4842549DF804202146641C42541A496B
:1053B0001F48006801F072FF074601F0D3FE00B2FB
:1053C00001909DF805202146641C114842549DF827
:1053D00004202146601CC4B20D4842540E491548B1
:1053E000006801F05BFF074601F0BCFE00B20190CF
:1053F0009DF805202046611CCCB205490A549DF851
:1054000004202046611CCCB201490A54002013E05C
:1054100012060020980000200000C8423C06002030
:1054200000401C4600007A44A400002070000020C8
:105430006C0000207400002001909DF8052020469B
:10544000611CCCB29C490A549DF804202046611C82
:10545000CCB299490A549DF803202146601CC4B27D
:10546000954842549DF802202046611CCCB29249D6
:105470000A549DF801202046611CCCB28E490A5482
:105480009DF800202046611CCCB28B490A54A12211
:105490002046611CCCB288490A54201FC87005E020
:1054A0008548405D3044C6B2681CC5B2A542F7DBF2
:1054B0002046611CCCB280490E5421467E48FBF741
:1054C000B3FFBDE8FC81F8B5002400260025AA2220
:1054D0002146641C784842542146641C42541222DE
:1054E0002146641C425400222146641C42547349E4
:1054F0000869734901F0D2FE074601F04FFE0090A3
:105500009DF801202146641C6B4842549DF8002000
:105510002146641C4254694948696A4901F0BEFE4B
:10552000074601F03BFE00909DF801202146641CD7
:10553000614842549DF800202046611CCCB25E496F
:105540000A545E498869604901F0A8FE074601F0E7
:1055500025FE00909DF801202046611CCCB25649E2
:105560000A549DF800202046611CCCB252490A54CE
:1055700053495648006801F091FE074601F00EFEBF
:1055800000909DF801202146601CC4B24A48425454
:105590009DF800202046611CCCB247490A540020E7
:1055A00000909DF801202046611CCCB242490A546B
:1055B0009DF800202046611CCCB23F490A540020CF
:1055C00000909DF801202046611CCCB23A490A5453
:1055D0009DF800202046611CCCB237490A540020B7
:1055E00000909DF801202046611CCCB232490A543B
:1055F0009DF800202146601CC4B22F484254002070
:1056000000909DF801202046611CCCB22A490A5422
:105610009DF800202046611CCCB227490A54002086
:1056200000909DF801202046611CCCB222490A540A
:105630009DF800202146601CC4B21F484254201F20
:105640001D49C87005E01C48405D3044C6B2681C66
:10565000C5B2A542F7DB2046611CCCB216490E54F8
:1056600021461548FBF7E0FEF8BD2DE9F041044660
:105670000D4616461F46FFF76EFE3B46324629464C
:105680002046FFF73CFD12480078012804D1FFF7BF
:105690001AFF00200E4908700E48007830B1002033
:1056A0000C49087008210448FBF7BEFE0A20FAF7EF
:1056B0002BFEBDE8F0810000120600203C06002011
:1056C0000000C84200401C4600007A449C000020B4
:1056D000A400002098000020002044490860486091
:1056E0008860C860C86108624148086141484861F3
:1056F0000020886170472DE9F047044689463B4801
:10570000C0F80490046002465168106801F0CEFEB3
:10571000364988604869002101F0F0FC06D0334A20
:105720009168106A01F0BAFB304908622F49086A93
:10573000314901F07FFE02D22F482C4908622B49E3
:10574000086A2E4901F076FD02D22C4827490862EA
:10575000264AD168906801F0A9FE0746234881696E
:10576000384601F09BFD0546204A116A506901F058
:1057700095FD07461D4A9168106901F08FFD80462E
:10578000394601F08BFB0646294601F087FB174995
:10579000C86108468068C860C86901F053FB0746C5
:1057A0000022174B01F074F8054600F037FE0F4950
:1057B000486008464068BDE8F08770B504460D466D
:1057C00029462046FFF797FF06464FF07E513046A8
:1057D00001F030FE01D24FF07E560021304601F03C
:1057E00029FD00D20026304670BD00003C06002096
:1057F000CDCC8C3F295C8F3D0000C8420000C8C260
:105800000000F03F704710B54C1084EA530404D5F3
:105810004042C1F1000138BF491E1B4204D552422B
:10582000C3F1000338BF5B1E00F0C6F814F0804FD0
:1058300004D04042C1F1000138BF491E14F0004FAE
:1058400004D05242C3F1000338BF5B1E10BD0000FC
:105850000FB4044910B503AA029800F089F910BCEE
:105860005DF814FB1C0000202DE9F0410E460446B3
:10587000002020622046E168884730B3252805D003
:10588000D4E901219047206A401CF2E7E1682046F4
:1058900000278847050018D0A5F14100192802D833
:1058A00020354FF400673246294620462760FAF734
:1058B00057FC40B1012804D0F61D26F00706083633
:1058C000D8E7361DD6E72846DAE7206ABDE8F0813A
:1058D0002DE9F0410646002410687529314616A5C9
:1058E00010D0AFF30080002802DA404213A507E091
:1058F00031688A0701D512A502E0490704D511A530
:10590000012401E0AFF3008000210A2206F1240700
:1059100009E0B0FBF2FCB0FBF2F302FB1C003030FC
:1059200078541846491C0028F3D123462A463046AD
:10593000BDE8F04100F0C2B8000000002D000000FA
:105940002B0000002000000040EA010310B59B0777
:105950000FD1042A0DD310C808C9121F9C42F8D0D9
:1059600020BA19BA884201D9012010BD4FF0FF308A
:1059700010BD1AB1D30703D0521C07E0002010BDA0
:1059800010F8013B11F8014B1B1B07D110F8013B2C
:1059900011F8014B1B1B01D1921EF1D1184610BD0D
:1059A00002F0FF0343EA032242EA024200F0F4B8A5
:1059B000704770477047704753EA020C00F06980E7
:1059C0002DE9F04B4FF00006002B1FBFB3FA83F513
:1059D00003FA05F424FA05F65E4012BF1643B2FA44
:1059E00082F502FA05F4C5F120051EBF22FA05FC76
:1059F00044EA0C04203556EA044C4FEA144418BF1C
:105A0000641C4FF000084FF00009904271EB030C4A
:105A100039D3002919BFB1FA81F701FA07F6B0FAB4
:105A200080F700FA07F6C7F120071EBF20FA07FC2F
:105A300046EA0C062037B6FBF4FCA7EB0507103F3F
:105A400007F01F0BCBF120060CFA0BFB2CFA06F625
:105A500044BFB3460026202FA4BF5E464FF0000B84
:105A60005BEA060C08BF4FF0010B19EB0B09ABFB0F
:105A7000027C48EB0608C01B06FB02CC0BFB03CCE8
:105A800071EB0C01C1E70B46024641464846BDE8B2
:105A9000F08B13B54FF000004FF00001AFF3008022
:105AA000BDE81C40704710B500F096F8006810BDC6
:105AB00010B5044600F090F8046010BD2DE9F047E1
:105AC0000D4699469246044600F12408016888066E
:105AD00004D5E06921F01001216000E00120A84216
